:100000000C9434000C943E000C943E000C943E0082
:100010000C943E000C943E000C943E000C943E0068
:100020000C943E000C943E000C943E000C943E0058
:100030000C943E000C943E000C943E000C943E0048
:100040000C943E000C943E000C943E000C943E0038
:100050000C943E000C943E000C943E000C943E0028
:100060000C943E000C943E0011241FBECFEFD8E04C
:10007000DEBFCDBF0E945B000C9485000C94000095
:100080001092C50087E68093C400E1ECF0E086E0C2
:10009000808388E0808308958091C00087FFFCCF33
:1000A0008091C6000895982F8091C00085FFFCCFF5
:1000B0009093C60008951092C50087E68093C4000F
:1000C00086E08093C10088E08093C10051E420E97C
:1000D00031E042E48091C00085FFFCCF5093C60020
:1000E00080E197E2F9013197F1F70197D9F7809113
:1000F000C00085FFFCCF4093C60080E197E2F90184
:0E0100003197F1F70197D9F7E5CFF894FFCFCB
:00000001FF
