:100000000C9434000C943E000C943E000C943E0082
:100010000C943E000C943E000C943E000C943E0068
:100020000C943E000C943E000C943E000C943E0058
:100030000C943E000C943E000C943E000C943E0048
:100040000C943E000C943E000C943E000C943E0038
:100050000C943E000C943E000C943E000C943E0028
:100060000C943E000C943E0011241FBECFEFD8E04C
:10007000DEBFCDBF0E945B000C947B000C9400009F
:100080001092C50087E68093C400E1ECF0E086E0C2
:10009000808380E1808308958091C00087FFFCCF3A
:1000A0008091C6000895982F8091C00085FFFCCFF5
:1000B0009093C60008951092C50087E68093C4000F
:1000C00086E08093C10080E18093C10083E084B921
:1000D00022E091E08091C00087FFFCCF8091C600B4
:1000E000813419F485B1892704C0823499F785B128
:0A00F000822785B9EFCFF894FFCF07
:00000001FF
